S014000062696E6172795F636C6F636B2E7372656320
S113000010C017C016C015C015C013C012C011C04F
S113001010C00FC00EC00DC00CC00BC00AC009C078
S113002008C011241FBECFE5D2E0DEBFCDBF14D07F
S113003026C0E6CF1F920F920FB60F9211248F9312
S11300409F9398B381E0892788BB9F918F910F90EC
S11300500FBE0F901F901895B89A18BA89B780648C
S113006089BF1DBC1CBC8EB588608EBD8EB58360F7
S11300708EBD88E09DE39BBD8ABD7894FFCFF89444
S1050080FFCFAC
S9030000FC
