:1000000010C01FC01EC01DC099C01BC01AC019C09F
:1000100018C017C016C015C014C013C012C011C03C
:1000200010C011241FBECFE5D2E0DEBFCDBF20E05F
:10003000A0E6B0E001C01D92A836B207E1F71DD0DE
:10004000F1C0DECF87B38F6187BB84B3876084BB89
:100050008FE188BB85BB089589B7806489BF1DBCCB
:100060001CBC8EB588608EBD8EB583608EBD88E069
:100070009DE39BBD8ABD78940895E4DFEDDFFFCF5B
:1000800060916400709165008091660090916700B6
:100090002CE330E040E050E087D02AE030E040E060
:1000A00050E082D0709363006093620061707727A4
:1000B000672B11F0C09801C0C09A8091620081FF47
:1000C00002C0C19801C0C19A8091620082FF02C043
:1000D000C29801C0C29A8091620083FF02C0C39897
:1000E00001C0C39A609164007091650080916600C0
:1000F000909167002CE330E040E050E055D02AE0DA
:1001000030E040E050E050D0309361002093600038
:1001100021703327232B11F0A89801C0A89A809151
:10012000600081FF02C0A99801C0A99A8091600077
:1001300082FF02C0AA980895AA9A08951F920F926A
:100140000FB60F9211242F933F934F935F936F93AA
:100150007F938F939F93AF93BF93EF93FF93809180
:10016000640090916500A0916600B09167000196CF
:10017000A11DB11D8093640090936500A09366005B
:10018000B09367007DDFFF91EF91BF91AF919F9199
:100190008F917F916F915F914F913F912F910F9030
:1001A0000FBE0F901F901895052E97FB16F4009424
:1001B0000FD057FD05D014D007FC02D046F408C07C
:1001C00050954095309521953F4F4F4F5F4F089583
:1001D00090958095709561957F4F8F4F9F4F0895B3
:1001E000A1E21A2EAA1BBB1BFD010DC0AA1FBB1F3B
:1001F000EE1FFF1FA217B307E407F50720F0A21BAD
:10020000B30BE40BF50B661F771F881F991F1A9419
:1002100069F760957095809590959B01AC01BD0143
:08022000CF010895F894FFCF0F
:00000001FF
