:100000000C9434000C9490000C94B5000C944600B1
:100010000C9446000C9446000C9446000C94460048
:100020000C9446000C9446000C9446000C943C0141
:100030000C9446000C9446000C9446000C94460028
:100040000C9446000C9446000C9446000C94460018
:100050000C9446000C9446000C9446000C94460008
:100060000C9446000C94460011241FBECFEFD8E03C
:10007000DEBFCDBF21E0A0E0B1E001C01D92A830FD
:10008000B207E1F70E9486000C94B4010C940000C2
:1000900084B18F6184B987B1876887B91AB885B18F
:1000A0008F6185B988B18F6188B98BB18C608BB94C
:1000B0000895EFE6F0E080818260808310928500F1
:1000C00010928400E1E8F0E0808188608083808184
:1000D0008360808388E09DE390938900809388000B
:1000E0000895E9E6F0E080818260808380818E7FE0
:1000F0008083E89A80818860808380818B7F808381
:10010000E99A089583B7816083BF08950E944800EB
:100110000E9459000E94710078940E948200FDCFD5
:100120001F920F920FB60F9211248F939F93AF934C
:10013000BF938091040190910501A0910601B091B7
:1001400007010496A11DB11D809304019093050140
:10015000A0930601B0930701BF91AF919F918F913A
:100160000F900FBE0F901F9018951F920F920FB611
:100170000F9211248F939F93AF93BF9380910401AB
:1001800090910501A0910601B09107010A96A11D69
:10019000B11D8093040190930501A0930601B093D3
:1001A0000701BF91AF919F918F910F900FBE0F905C
:1001B0001F901895609104017091050180910601CE
:1001C000909107012CE330E040E050E00E94730181
:1001D0002AE030E040E050E00E9473017093030198
:1001E0006093020161707727672B11F0289801C096
:1001F000289A8091020181FF02C0299801C0299AA2
:100200008091020182FF02C02A9801C02A9A80913F
:10021000020183FF02C02B9801C02B9A6091040158
:100220007091050180910601909107012CE330E067
:1002300040E050E00E9473012AE030E040E050E0EE
:100240000E94730130930101209300012170332734
:10025000232B11F0409801C0409A8091000181FF4A
:1002600002C0419801C0419A8091000182FF02C002
:1002700042980895429A08951F920F920FB60F92D6
:1002800011242F933F934F935F936F937F938F939B
:100290009F93AF93BF93EF93FF938091040190914D
:1002A0000501A0910601B09107010196A11DB11DA4
:1002B0008093040190930501A0930601B093070178
:1002C0000E94DA00FF91EF91BF91AF919F918F91C2
:1002D0007F916F915F914F913F912F910F900FBE42
:1002E0000F901F901895052E97FB1EF400940E9406
:1002F0008A0157FD07D00E94920107FC03D04EF4FB
:100300000C948A0150954095309521953F4F4F4F61
:100310005F4F089590958095709561957F4F8F4FB1
:100320009F4F0895A1E21A2EAA1BBB1BFD010DC011
:10033000AA1FBB1FEE1FFF1FA217B307E407F50795
:1003400020F0A21BB30BE40BF50B661F771F881F71
:10035000991F1A9469F760957095809590959B0107
:0C036000AC01BD01CF010895F894FFCF5F
:00000001FF
