:1000000010C017C016C015C02CC013C012C011C03C
:1000100010C00FC00EC00DC00CC00BC00AC009C07C
:1000200008C011241FBECFE5D2E0DEBFCDBF16D081
:100030002AC0E6CFB89A18BA089589B7806489BFF4
:100040001DBC1CBC8EB588608EBD8EB583608EBD18
:1000500088E09DE39BBD8ABD78940895EBDFEDDFDA
:10006000FFCF1F920F920FB60F9211248F939F9381
:1000700098B381E0892788BB9F918F910F900FBE25
:0A0080000F901F901895F894FFCF21
:00000001FF
